:04000000803114280F
:100008007E1480314101161E0A280B2812280C1E66
:100018000E280F28122881318C2180317E1009008A
:1000280080311628FB01FC014001A001A1017E10CE
:10003800400181312329CC19C004000C00000000C4
:10004800460114284001000000000A0040010A2867
:10005800CE000C18C0008C19C004000C0000000071
:100068004F0114284001B42940010A14400B0A2802
:100078000000000000000000000000000000000078
:10008800800118308001000000000000000000001E
:100098000000000000000000000000000000000058
:1000A8000000000000000000000000000000000048
:1000B8000000000000000000000000000000000038
:1000C8000000000000000000000000000000000028
:1000D8000000000000000000000000000000000018
:1000E8001F00E1031F3CE1031F3CF0011F3EE0033A
:1000F8001F3EE1031F3C40000028000000000038BC
:1001080000004001980199019A0137309200F030BF
:100118009300F030940037307D018C00F030960069
:10012800F030A0008D019701A1018E019801A20174
:1001380037308F00F0309900FF30A3003F30900037
:10014800F0309A00F030A40024307B019C00253068
:100158009D0026309E0027309F007D01910192016D
:1001680093019B019C019D01A501A601A70108001F
:100178007901A5010730A6000730A7002508F33943
:100188000838A500A401A301A201D530A100F330CD
:10019800A505A401A301A201A101A0019F019E013F
:1001A8009D01FF309700FF309600940193019A015A
:1001B80041018D1097100D1117117901A50110300B
:1001C800920008007408663EF6000030753DF7009E
:1001D8007508F1007408F0007708F3007608F2005B
:1001E80081315D21803181317B21803181318021D4
:1001F8008031003A031D01290229FA28813176212C
:10020800803108004A018C131F30F4000030F500DB
:100218008031E620813106304A0195009901980124
:1002280097019601410113101D1093109D10131191
:100238001D1193119D1180304A018C0008008131F5
:100248003F2181314A019001FA010630F90013304B
:10025800F800AE30890B2E29F80B2E29F90B2E2920
:100268007A080F394A0190000130F8007808FA0737
:100278002929803114288131672181318131062172
:1002880081318031852081318031BC2081318131BB
:1002980085218131813152218131080041010C10C1
:1002A8000B140030F0000030F100813170218131F1
:1002B8000800730879019700720896007108940085
:1002C800700893000800603045018D008F0191018E
:1002D800023093009201080071084001A1007008E3
:1002E800A00008007901191012139213080079016F
:1002F80092171914121708007901120E890C013986
:1003080008008131892181310800790190110800A4
:020318000800DB
:020000040001F9
:0A000E00EC3FFF3F9F3FFF3FFF3F25
:00000001FF
